:100000000EC028C058C626C025C024C023C022C0A8
:10001000A2C620C020C01EC01DC01CC01BC0112411
:100020001FBECFE5D2E0DEBFCDBF10E0A0E6B0E05E
:10003000E0E0F2E102C005900D92A237B107D9F7D6
:1000400020E0A2E7B0E001C01D92A039B207E1F7BD
:1000500063D5D4C8D5CF1F920F9200905F000F9246
:1000600011242F933F938F939F93AF93BF93EF935D
:10007000FF93CF93DF93CDB7DEB788E590E028E517
:1000800030E0F90120812F6EFC0120838091720005
:1000900090917300A0917400B09175000196A11D1C
:1000A000B11D8093720090937300A0937400B0937D
:1000B00075000000DF91CF91FF91EF91BF91AF915B
:1000C0009F918F913F912F910F9000925F000F9021
:1000D0001F901895CF93DF93CDB7DEB78FE590E0F3
:1000E0002FE530E0F90120812F67FC01208300001B
:1000F000DF91CF910895CF93DF93CDB7DEB78FE532
:1001000090E02FE530E0F90120812068FC01208398
:100110000000DF91CF910895CF93DF9300D000D0FE
:10012000CDB7DEB769837A838B839C83109272008C
:1001300010927300109274001092750000002091CC
:100140007200309173004091740050917500898164
:100150009A81AB81BC81281739074A075B0778F37E
:1001600000000F900F900F900F90DF91CF910895A6
:10017000CF93DF93CDB7DEB78CE490E020E8FC01AD
:1001800020838AE490E0FC01108283E590E0FC018A
:1001900010828AE490E02AE430E0F90120812260B4
:1001A000FC01208383E590E023E530E0F901208124
:1001B0002260FC01208382E590E0FC01108289E44A
:1001C00090E02DE7FC01208389E590E029E530E00F
:1001D000F90120812061FC0120830000DF91CF9193
:1001E0000895CF93DF93CDB7DEB785E590E025E5A1
:1001F00030E0F90120812E6FFC0120838BE590E037
:100200002BE530E0F90120812064FC01208300000F
:10021000DF91CF910895CF93DF931F92CDB7DEB7D3
:10022000898385E590E025E530E0F90120812E6F96
:10023000FC01208385E390E025E330E0F901208193
:10024000622F2981422F220F550B21E030E002C09E
:10025000220F331F4A95E2F7262BFC0120838BE502
:1002600090E02BE530E0F90120812062FC01208341
:1002700000000F90DF91CF910895CF93DF931F92ED
:10028000CDB7DEB7898387E390E027E330E0F9015B
:100290002081622F2981422F220F550B21E030E06F
:1002A00002C0220F331F4A95E2F7262BFC01208360
:1002B00000000F90DF91CF910895CF93DF931F92AD
:1002C000CDB7DEB789838981833031F487E290E04E
:1002D00023E0FC01208305C087E290E022E0FC01DE
:1002E000208386E290E026E230E0F9012081286058
:1002F000FC01208386E290E026E230E0F9012081D3
:100300002068FC01208386E290E026E230E0F901DB
:1003100020812064FC01208300000F90DF91CF91A9
:100320000895AF92BF92CF92DF92EF92FF920F9318
:100330001F93CF93DF93CDB7DEB720917700309135
:1003400078004091790050917A0060917B00709123
:100350007C0080917D0090917E00A22EB32EC42E51
:10036000D52EE62EF72E082F192F2A2D3B2D4C2D9A
:100370005D2D6E2D7F2D802F912FDF91CF911F91BD
:100380000F91FF90EF90DF90CF90BF90AF900895C6
:100390002F923F924F925F926F927F928F929F9295
:1003A000AF92BF92CF92DF92EF92FF920F931F9383
:1003B000CF93DF93CDB7DEB728970FB6F894DEBFA3
:1003C0000FBECDBF29833A834B835C836D837E83CD
:1003D0008F83988729803A804B805C806D807E80F7
:1003E0008F8098840F2EFCE3AF2EF02DB12CC12C02
:1003F000D12CE12CF12C00E010E0222D332D442DE6
:10040000552D662D772D882D992D2FD5A22EB32E03
:10041000C42ED52EE62EF72E082F192F2A2D3B2D70
:100420004C2D5D2D6E2D7F2D802F912FA22EB32E62
:10043000C42ED52EE62EF72E082F192F2A2D3B2D50
:100440004C2D5D2D6E2D7F2D802F912F28960FB670
:10045000F894DEBF0FBECDBFDF91CF911F910F91FA
:10046000FF90EF90DF90CF90BF90AF909F908F90D4
:100470007F906F905F904F903F902F9008952F92B4
:100480003F924F925F926F927F928F929F92AF9224
:10049000BF92CF92DF92EF92FF920F931F93CF9371
:1004A000DF93CDB7DEB760970FB6F894DEBF0FBE0F
:1004B000CDBF29833A834B835C836D837E838F8397
:1004C0009887A986BA86CB86DC86ED86FE860F875E
:1004D000188B29853A854B855C856D857E858F8552
:1004E0009889A980BA80CB80DC80ED80FE800F8166
:1004F000188511D5222E332E442E552E662E772E9A
:10050000882E992EA22CB32CC42CD52CE62CF72C9B
:10051000082D192D2A2D3B2D4C2D5D2D6E2D7F2D57
:10052000802F912F60960FB6F894DEBF0FBECDBF1F
:10053000DF91CF911F910F91FF90EF90DF90CF90BF
:10054000BF90AF909F908F907F906F905F904F90F3
:100550003F902F900895CF93DF93CDB7DEB786E31A
:1005600090E0FC018081882F90E081709927892B91
:1005700011F480E001C081E0DF91CF910895CF9325
:10058000DF9300D000D01F92CDB7DEB79A83898366
:100590007C836B834D838B819C81FC0120818981CD
:1005A0009A81FC0120838B819C812D81FC01208319
:1005B00000000F900F900F900F900F90DF91CF9150
:1005C0000895CF93DF9300D01F92CDB7DEB7898314
:1005D0006A834B838A81823019F08981823099F550
:1005E0008981882319F08A818823B1F488E390E017
:1005F00028E330E0F9012081622F2B81422F220F66
:10060000550B21E030E002C0220F331F4A95E2F77C
:100610002627FC0120832CC088E390E028E330E00B
:10062000F9012081622F2B81422F220F550B21E0EF
:1006300030E002C0220F331F4A95E2F720952623AF
:10064000FC01208315C088E390E028E330E0F90145
:100650002081622F2B81422F220F550B21E030E0A9
:1006600002C0220F331F4A95E2F7262BFC0120839C
:1006700000000F900F900F90DF91CF9108952F926F
:100680003F924F925F926F927F928F929F92AF9222
:10069000BF92CF92DF92EF92FF920F931F93CF936F
:1006A000DF93CDB7DEB7E1970FB6F894DEBF0FBE8C
:1006B000CDBF89A30AA31BA32CA33DA34EA35FA375
:1006C00068A779A7FBA6EAA6DDA6CCA6BFA6AEA61C
:1006D00099AA88AA8EA59FA5FC018081843609F07D
:1006E00047C089A1813011F58AA59BA52AA1FC01EB
:1006F00020832BA1FC0121832CA1FC0122832DA1AD
:10070000FC0123832EA1FC0124832FA1FC0125835E
:1007100028A5FC01268329A5FC0127832EA53FA53A
:1007200088A999A941E0B9012ADFBEC18CA59DA580
:100730002AA1FC0120832BA1FC0121832CA1FC0117
:1007400022832DA1FC0123832EA1FC0124832FA150
:10075000FC01258328A5FC01268329A5FC0127830C
:100760002EA53FA588A999A940E0B90108DF9CC141
:100770008EA59FA5FC018081882309F0BCC089A1BA
:10078000813011F58AA59BA52AA1FC0120832BA10C
:10079000FC0121832CA1FC0122832DA1FC012383D8
:1007A0002EA1FC0124832FA1FC01258328A5FC0197
:1007B000268329A5FC0127832EA53FA588A999A9F1
:1007C00041E0B901DCDE70C18CA59DA5FC01208053
:1007D000FC013180FC014280FC015380FC016480FB
:1007E000FC017580FC018680FC0197802AA13BA159
:1007F0004CA15DA16EA17FA188A599A5A22EB32EC3
:10080000C42ED52EE62EF72E082F192F222D332D8C
:10081000442D552D662D772D882D992D30DEA22E55
:10082000B32EC42ED52EE62EF72E082F192FA9820F
:10083000BA82CB82DC82ED82FE820F831887A98088
:10084000BA80CB80DC80ED80FE800F8118852A2D58
:100850003B2D4C2D5D2D6E2D7F2D802F912F98DD02
:10086000A22EB32EC42ED52EE62EF72E082F192F2A
:10087000A986BA86CB86DC86ED86FE860F87188B26
:10088000A984BA84CB84DC84ED84FE840F85188926
:100890002F962FAC2F9760963FAC609761964FAC28
:1008A000619762965FAC629763966FAC639764964C
:1008B0007FAC649765968FAC659766969FAC66979C
:1008C0002A2D3B2D4C2D5D2D6E2D7F2D802F912FB0
:1008D000A22CB32CC42CD52CE62CF72C082D192DCA
:1008E00023D308F4E1C02EA53FA588A999A942E029
:1008F000B90145DED9C08EA59FA5FC01808181305C
:1009000009F0BDC089A1813009F097C08AA59BA5D7
:10091000FC012080FC013180FC014280FC015380FD
:10092000FC016480FC017580FC018680FC019780DD
:100930002AA13BA14CA15DA16EA17FA188A599A58B
:10094000A22EB32EC42ED52EE62EF72E082F192F49
:10095000222D332D442D552D662D772D882D992D43
:100960008EDDA22EB32EC42ED52EE62EF72E082F06
:10097000192FA98ABA8ACB8ADC8AED8AFE8A0F8B64
:10098000188FA988BA88CB88DC88ED88FE880F8903
:10099000188D2A2D3B2D4C2D5D2D6E2D7F2D802FFA
:1009A000912FF6DCA22EB32EC42ED52EE62EF72ED6
:1009B000082F192FA98EBA8ECB8EDC8EED8EFE8E6F
:1009C0000F8F18A3A98CBA8CCB8CDC8CED8CFE8C91
:1009D0000F8D18A127962FAC279728963FAC289704
:1009E00029964FAC29972A965FAC2A972B966FAC25
:1009F0002B972C967FAC2C972D968FAC2D972E96FF
:100A00009FAC2E972A2D3B2D4C2D5D2D6E2D7F2DCD
:100A1000802F912FA22CB32CC42CD52CE62CF72C94
:100A2000082D192D81D208F43FC02EA53FA588A915
:100A300099A942E0B901A3DD37C02EA53FA588A939
:100A400099A940E0B9019BDD8CA59DA52AA1FC01D7
:100A500020832BA1FC0121832CA1FC0122832DA149
:100A6000FC0123832EA1FC0124832FA1FC012583FB
:100A700028A5FC01268329A5FC01278315C088A988
:100A800099A9FC018081813041F42EA53FA588A958
:100A900099A941E0B90173DD07C02EA53FA588A93A
:100AA00099A940E0B9016BDD80916000382F88A9D9
:100AB00099A9FC0120818EA59FA5FC018081432F6F
:100AC000622F7FDD0000E1960FB6F894DEBF0FBE07
:100AD000CDBFDF91CF911F910F91FF90EF90DF90ED
:100AE000CF90BF90AF909F908F907F906F905F90CE
:100AF0004F903F902F900895CF93DF93CDB7DEB7FF
:100B0000E9DA80916000B9DB33DB82E084DBF3DA81
:100B10000000DF91CF9108954F925F926F927F9284
:100B20008F929F92AF92BF92CF92DF92EF92FF92FD
:100B30000F931F93CF93DF93CDB7DEB760970FB6B8
:100B4000F894DEBF0FBECDBFD7DF80916000282FA5
:100B500030E081E090E0AC0102C0440F551F2A95BF
:100B6000E2F788E390E028E330E0F9012081322FBA
:100B7000242F232BFC012083F2E0F9831A821B82AD
:100B80001C821D821E821F82188644244394512C8D
:100B9000612C712C812C912CA12CB12CC2DB2987CA
:100BA0003A874B875C876D877E878F87988BD3DCEE
:100BB000982F88858F938F818F938E818F938D81CE
:100BC0008F938C818F938B818F938A818F9389816F
:100BD0008F938B2D8F938A2D8F93892D8F93882DB3
:100BE0008F93872D8F93862D8F93852D8F93842DB3
:100BF0008F930F2EFFE78F2EF0E09F2EF02D0F2EFC
:100C0000F1E6AF2EF0E0BF2EF02D0F2EF0E8CF2E44
:100C1000F0E0DF2EF02D0F2EF8E8EF2EF0E0FF2EA3
:100C2000F02D09851A852B853C854D855E856F8560
:100C30007889892F24DD8DB79EB740960FB6F8943A
:100C4000DEBF0FBECDBF68EE73E080E090E064DAF7
:100C5000A0907700B0907800C0907900D0907A0092
:100C6000E0907B00F0907C0000917D0010917E0070
:100C70002A2D3B2D4C2D5D2D6E2D7F2D802F912FFC
:100C8000A1E03DD1A22EB32EC42ED52EE62EF72EF6
:100C9000082F192FA0927700B0927800C0927900A7
:100CA000D0927A00E0927B00F0927C0000937D006D
:100CB00010937E0061CF1F920F9200905F000F9201
:100CC00011242F933F934F935F936F937F938F9351
:100CD0009F93AF93BF93EF93FF93CF93DF931F92B5
:100CE000CDB7DEB78AE590E02AE530E0F901208152
:100CF0002F6DFC012083FFD96AE070E080E090E076
:100D00000BDAE8D9198202C081E0898386E390E09A
:100D1000FC018081882F90E084709927892BA1F3B2
:100D20008981882311F083E0C8DA00000F90DF91F9
:100D3000CF91FF91EF91BF91AF919F918F917F9153
:100D40006F915F914F913F912F910F9000925F00B3
:100D50000F901F9018951F920F9200905F000F92B6
:100D600011242F933F934F935F936F937F938F93B0
:100D70009F93AF93BF93EF93FF93CF93DF93CDB741
:100D8000DEB72897DEBFCDBF86E290E026E230E0F6
:100D9000F90120812F6EFC01208384E290E0FC01A8
:100DA0008081882F90E09A83898385E290E0FC011E
:100DB0008081882F90E0382F222789819A81822B89
:100DC000932B9C838B838B819C81092E000CAA0B17
:100DD000BB0BBC01CD011BD1DC01CB0120E030E01D
:100DE00040EA50E4BC01CD019ED1DC01CB0120E002
:100DF00030E040E854E4BC01CD019FD0DC01CB01E0
:100E00008D839E83AF83B88780917600882351F4C9
:100E100081E08093760086E290E0FC01108284E01D
:100E20004CDA06C01092760086E290E0FC01108257
:100E3000000028960FB6F894DEBF0FBECDBFDF913D
:100E4000CF91FF91EF91BF91AF919F918F917F9142
:100E50006F915F914F913F912F910F9000925F00A2
:100E60000F901F901895689401C0E8948F929F92FC
:100E7000CF93DF9305D0DF91CF919F908F9008950E
:100E800088249924F401E401B0E41B2ED4019D15BB
:100E90008E049F04E007F10738F4FC014B01CA01FE
:100EA000B901AD019E011694220F331F441F551F37
:100EB000661F771F881F991F881C991CEE1FFF1F34
:100EC000CC1FDD1FAA1FBB1F8A149B04EC05FD0568
:100ED000CE05DF05A007B10748F08A189B08EC098A
:100EE000FD09CE09DF09A00BB10B21601A94E1F6D0
:100EF0002EF49401AF01BE01CD01000C0895002431
:100F0000A7FD00942A0F301D401D501D601D701D4F
:100F1000801D901D08952A193B094C095D096E0931
:100F20007F09800B910B08952A153B054C055D0543
:100F30006E057F058007910708950CD0BAC0B2D026
:100F400040F0A9D030F021F45F3F19F09BC051115F
:100F5000E4C09EC0BFD098F39923C9F35523B1F3E1
:100F6000951B550BBB27AA2762177307840738F018
:100F70009F5F5F4F220F331F441FAA1FA9F333D077
:100F80000E2E3AF0E0E830D091505040E695001C2B
:100F9000CAF729D0FE2F27D0660F771F881FBB1FE7
:100FA000261737074807AB07B0E809F0BB0B802DC1
:100FB000BF01FF2793585F4F2AF09E3F510568F00D
:100FC00061C0ABC05F3FECF3983EDCF3869577954C
:100FD0006795B795F7959F5FC9F7880F911D96950F
:100FE000879597F90895E1E0660F771F881FBB1F6B
:100FF000621773078407BA0720F0621B730B840B18
:10100000BA0BEE1F88F7E0950895E89409C097FBA6
:101010003EF490958095709561957F4F8F4F9F4FCF
:101020009923A9F0F92F96E9BB279395F695879513
:1010300077956795B795F111F8CFFAF4BB0F11F4D6
:1010400060FF1BC06F5F7F4F8F4F9F4F16C088237D
:1010500011F096E911C0772321F09EE8872F762FB3
:1010600005C0662371F096E8862F70E060E02AF0F4
:101070009A95660F771F881FDAF7880F96958795E0
:1010800097F9089597F99F6780E870E060E0089508
:101090009FEF80EC089500240A9416161706180690
:1010A0000906089500240A9412161306140605066C
:1010B0000895092E0394000C11F4882352F0BB0FFD
:1010C00040F4BF2B11F460FF04C06F5F7F4F8F4F60
:1010D0009F4F089557FD9058440F551F59F05F3F9B
:1010E00071F04795880F97FB991F61F09F3F79F04A
:1010F00087950895121613061406551FF2CF4695CC
:10110000F1DF08C0161617061806991FF1CF86954D
:101110007105610508940895E894BB276627772731
:10112000CB0197F908950AD0C4CFB5DF28F0BADF14
:1011300018F0952309F0A6CFABCFEFCFCBDFA8F304
:101140009923D9F35523C9F3950F50E0551FAA27CA
:10115000EE27FF27BB2700240894679520F4E20FB1
:10116000F31FB41F0A1E220F331F441FAA1F6695C8
:10117000A9F7779530F4F30FB41F0A1E121E08F476
:101180006395330F441FAA1F221F769599F7879501
:1011900020F4B40F0A1E121E631F440FAA1F221F41
:1011A000331F8695A9F7862F712D602D11249F5727
:1011B00050408AF0E1F088234AF0EE0FFF1FBB1F7A
:1011C000661F771F881F91505040A9F79E3F510519
:1011D00070F058CFA2CF5F3FECF3983EDCF38695DA
:1011E00077956795B795F795E7959F5FC1F7FE2BC4
:1011F000880F911D9695879597F90895F894FFCFDC
:101200000164010000000000000002000000000076
:021210000000DC
:00000001FF
