:100000000EC028C01BC826C025C024C023C022C0E3
:1000100065C820C020C01EC01DC01CC01BC011244C
:100020001FBECFE5D2E0DEBFCDBF10E0A0E6B0E05E
:10003000E4E8F6E102C005900D92A237B107D9F7C6
:1000400020E0A2E7B0E001C01D92A539B207E1F7B8
:1000500010D716CBD5CF1F920F9200905F000F9252
:1000600011242F933F938F939F93AF93BF93EF935D
:10007000FF93CF93DF93CDB7DEB788E590E028E517
:1000800030E0F90120812F6EFC0120838091720005
:1000900090917300A0917400B09175000196A11D1C
:1000A000B11D8093720090937300A0937400B0937D
:1000B00075000000DF91CF91FF91EF91BF91AF915B
:1000C0009F918F913F912F910F9000925F000F9021
:1000D0001F901895CF93DF93CDB7DEB78FE590E0F3
:1000E0002FE530E0F90120812F67FC01208300001B
:1000F000DF91CF910895CF93DF93CDB7DEB78FE532
:1001000090E02FE530E0F90120812068FC01208398
:100110000000DF91CF910895CF93DF9300D000D0FE
:10012000CDB7DEB769837A838B839C83109272008C
:1001300010927300109274001092750000002091CC
:100140007200309173004091740050917500898164
:100150009A81AB81BC81281739074A075B0778F37E
:1001600000000F900F900F900F90DF91CF910895A6
:10017000CF93DF93CDB7DEB787E490E027E430E09C
:10018000F90120812260FC01208387E490E027E4CC
:1001900030E0F90120812160FC01208387E490E0B8
:1001A00027E430E0F90120812B7FFC01208380E5EA
:1001B00090E020E530E0F90120812068FC012083F7
:1001C00080E590E020E530E0F90120812067FC0126
:1001D00020838DE490E02FEFFC01208380E590E008
:1001E00020E530E0F90120812D60FC0120838DE4C1
:1001F00090E02FEFFC01208388E590E028E530E0D7
:10020000F90120812064FC0120830000DF91CF915F
:100210000895CF93DF93CDB7DEB78CE490E020E86C
:10022000FC0120838AE490E0FC01108283E590E0E9
:10023000FC0110828AE490E02AE430E0F901208198
:100240002260FC01208383E590E023E530E0F901A2
:1002500020812260FC01208382E590E0FC01108275
:1002600089E490E02DE7FC01208389E590E029E511
:1002700030E0F90120812061FC0120830000DF9142
:10028000CF910895CF93DF93CDB7DEB785E590E0AA
:1002900025E530E0F90120812E6FFC0120838BE5FC
:1002A00090E02BE530E0F90120812064FC012083FF
:1002B0000000DF91CF910895CF93DF931F92CDB7C8
:1002C000DEB7898385E590E025E530E0F9012081FE
:1002D0002E6FFC01208385E390E025E330E0F901F7
:1002E0002081622F2981422F220F550B21E030E01F
:1002F00002C0220F331F4A95E2F7262BFC01208310
:100300008BE590E02BE530E0F90120812062FC01D3
:10031000208300000F90DF91CF910895CF93DF935A
:100320001F92CDB7DEB7898387E390E027E330E003
:10033000F9012081622F2981422F220F550B21E0E4
:1003400030E002C0220F331F4A95E2F7262BFC0152
:10035000208300000F90DF91CF910895CF93DF931A
:100360001F92CDB7DEB789838981833031F487E26C
:1003700090E023E0FC01208305C087E290E022E0CA
:10038000FC01208386E290E026E230E0F901208142
:100390002860FC01208386E290E026E230E0F9014B
:1003A00020812068FC01208386E290E026E230E094
:1003B000F90120812064FC01208300000F90DF916F
:1003C000CF910895AF92BF92CF92DF92EF92FF92BA
:1003D0000F931F93CF93DF93CDB7DEB720917700B4
:1003E000309178004091790050917A0060917B00C3
:1003F00070917C0080917D0090917E00A22EB32EA2
:10040000C42ED52EE62EF72E082F192F2A2D3B2D80
:100410004C2D5D2D6E2D7F2D802F912FDF91CF9153
:100420001F910F91FF90EF90DF90CF90BF90AF9012
:1004300008952F923F924F925F926F927F928F9288
:100440009F92AF92BF92CF92DF92EF92FF920F9363
:100450001F93CF93DF93CDB7DEB728970FB6F894ED
:10046000DEBF0FBECDBF29833A834B835C836D8390
:100470007E838F83988729803A804B805C806D8053
:100480007E808F8098840F2EFCE3AF2EF02DB12C50
:10049000C12CD12CE12CF12C00E010E0222D332DC9
:1004A000442D552D662D772D882D992DD2D6A22E2F
:1004B000B32EC42ED52EE62EF72E082F192F2A2D57
:1004C0003B2D4C2D5D2D6E2D7F2D802F912FA22E3B
:1004D000B32EC42ED52EE62EF72E082F192F2A2D37
:1004E0003B2D4C2D5D2D6E2D7F2D802F912F28962D
:1004F0000FB6F894DEBF0FBECDBFDF91CF911F9135
:100500000F91FF90EF90DF90CF90BF90AF909F90B2
:100510008F907F906F905F904F903F902F900895B5
:100520002F923F924F925F926F927F928F929F9203
:10053000AF92BF92CF92DF92EF92FF920F931F93F1
:10054000CF93DF93CDB7DEB760970FB6F894DEBFD9
:100550000FBECDBF29833A834B835C836D837E833B
:100560008F839887A986BA86CB86DC86ED86FE8641
:100570000F87188B29853A854B855C856D857E852F
:100580008F859889A980BA80CB80DC80ED80FE8041
:100590000F811885D6D6222E332E442E552E662E48
:1005A000772E882E992EA22CB32CC42CD52CE62C79
:1005B000F72C082D192D2A2D3B2D4C2D5D2D6E2D40
:1005C0007F2D802F912F60960FB6F894DEBF0FBE5F
:1005D000CDBFDF91CF911F910F91FF90EF90DF90F2
:1005E000CF90BF90AF909F908F907F906F905F90D3
:1005F0004F903F902F900895CF93DF93CDB7DEB704
:1006000086E390E0FC018081882F90E0817099273B
:10061000892B11F480E001C081E0DF91CF91089532
:10062000CF93DF9300D000D01F92CDB7DEB79A836F
:1006300089837C836B834D838B819C81FC0120812A
:1006400089819A81FC0120838B819C812D81FC0111
:10065000208300000F900F900F900F900F90DF916C
:10066000CF910895CF93DF9300D01F92CDB7DEB71F
:1006700089836A834B838A81823019F08981823031
:1006800091F48981882319F08A81882331F48EE4DA
:1006900090E02FECFC0120831FC08EE490E02FEF50
:1006A000FC01208319C080918400882329F48EE402
:1006B00090E0FC01108210C080918400813031F400
:1006C0008EE490E02FEFFC01208306C08EE490E0E2
:1006D0002FECFC01208300C000000F900F900F90C2
:1006E000DF91CF910895CF93DF93CDB7DEB784E646
:1006F0008093610010927F00109277001092780032
:100700001092790010927A0010927B0010927C0077
:1007100010927D0010927E0010928D0010928E003B
:1007200010928F00109290001092910010929200FF
:1007300010929300109294001092850010928600FF
:1007400010928700109288001092890010928A00FF
:1007500010928B0010928C00109284000000DF91A8
:10076000CF9108952F923F924F925F926F927F9216
:100770008F929F92AF92BF92CF92DF92EF92FF92B1
:100780000F931F93CF93DF93CDB7DEB7E1970FB6EB
:10079000F894DEBF0FBECDBF89A30AA31BA32CA371
:1007A0003DA34EA35FA368A779A7FBA6EAA6DDA693
:1007B000CCA6BFA6AEA699AA88AA8EA59FA5FC0125
:1007C0008081843609F047C089A1813011F58AA55E
:1007D0009BA52AA1FC0120832BA1FC0121832CA134
:1007E000FC0122832DA1FC0123832EA1FC01248383
:1007F0002FA1FC01258328A5FC01268329A5FC0146
:1008000027832EA53FA588A999A941E0B90108DF52
:10081000C4C18CA59DA52AA1FC0120832BA1FC01AC
:1008200021832CA1FC0122832DA1FC0123832EA175
:10083000FC0124832FA1FC01258328A5FC0126832C
:1008400029A5FC0127832EA53FA588A999A940E0E9
:10085000B901E6DEA2C18EA59FA5FC018081882397
:1008600009F0BCC089A1813011F58AA59BA52AA1F8
:10087000FC0120832BA1FC0121832CA1FC012283FC
:100880002DA1FC0123832EA1FC0124832FA1FC01B7
:10089000258328A5FC01268329A5FC0127832EA5F5
:1008A0003FA588A999A941E0B901BADE76C18CA516
:1008B0009DA5FC012080FC013180FC014280FC01EF
:1008C0005380FC016480FC017580FC018680FC0182
:1008D00097802AA13BA14CA15DA16EA17FA188A513
:1008E00099A5A22EB32EC42ED52EE62EF72E082FB4
:1008F000192F222D332D442D552D662D772D882D22
:10090000992D0EDEA22EB32EC42ED52EE62EF72E56
:10091000082F192FA982BA82CB82DC82ED82FE8257
:100920000F831887A980BA80CB80DC80ED80FE80A1
:100930000F8118852A2D3B2D4C2D5D2D6E2D7F2D81
:10094000802F912F76DDA22EB32EC42ED52EE62E2B
:10095000F72E082F192FA986BA86CB86DC86ED865E
:10096000FE860F87188BA984BA84CB84DC84ED843F
:10097000FE840F8518892F962FAC2F9760963FAC79
:10098000609761964FAC619762965FAC6297639691
:100990006FAC639764967FAC649765968FAC6597F0
:1009A00066969FAC66972A2D3B2D4C2D5D2D6E2DA6
:1009B0007F2D802F912FA22CB32CC42CD52CE62C6C
:1009C000F72C082D192DC6D408F4E7C02EA53FA595
:1009D00088A999A942E0B90123DEDFC08EA59FA5B1
:1009E000FC018081813009F0BDC089A1813009F00E
:1009F00097C08AA59BA5FC012080FC013180FC01E9
:100A00004280FC015380FC016480FC017580FC0184
:100A10008680FC0197802AA13BA14CA15DA16EA11B
:100A20007FA188A599A5A22EB32EC42ED52EE62E81
:100A3000F72E082F192F222D332D442D552D662DDD
:100A4000772D882D992D6CDDA22EB32EC42ED52E98
:100A5000E62EF72E082F192FA98ABA8ACB8ADC8AAC
:100A6000ED8AFE8A0F8B188FA988BA88CB88DC881C
:100A7000ED88FE880F89188D2A2D3B2D4C2D5D2D7C
:100A80006E2D7F2D802F912FD4DCA22EB32EC42E5D
:100A9000D52EE62EF72E082F192FA98EBA8ECB8EC3
:100AA000DC8EED8EFE8E0F8F18A3A98CBA8CCB8CAA
:100AB000DC8CED8CFE8C0F8D18A127962FAC279720
:100AC00028963FAC289729964FAC29972A965FAC79
:100AD0002A972B966FAC2B972C967FAC2C972D9644
:100AE0008FAC2D972E969FAC2E972A2D3B2D4C2DFB
:100AF0005D2D6E2D7F2D802F912FA22CB32CC42C19
:100B0000D52CE62CF72C082D192D24D408F445C03B
:100B10002EA53FA588A999A942E0B90181DD3DC074
:100B20002EA53FA588A999A940E0B90179DD8CA53A
:100B30009DA52AA1FC0120832BA1FC0121832CA1CE
:100B4000FC0122832DA1FC0123832EA1FC0124831F
:100B50002FA1FC01258328A5FC01268329A5FC01E2
:100B600027831BC088A999A9FC018081813059F491
:100B700081E0809384002EA53FA588A999A941E032
:100B8000B9014EDD0AC082E0809384002EA53FA506
:100B900088A999A940E0B90143DD80916000382F10
:100BA00088A999A9FC0120818EA59FA5FC018081BF
:100BB000432F622F57DD0000E1960FB6F894DEBF99
:100BC0000FBECDBFDF91CF911F910F91FF90EF909E
:100BD000DF90CF90BF90AF909F908F907F906F905D
:100BE0005F904F903F902F900895CF93DF93CDB7B4
:100BF000DEB770DA8091600091DB0BDB82E05CDBBA
:100C00007ADA71DDB5DA0000DF91CF9108958F9225
:100C10009F92AF92BF92CF92DF92EF92FF920F938B
:100C20001F93CF93DF93CDB7DEB76E970FB6F894CF
:100C3000DEBF0FBECDBF8A874B875C876D877E87FF
:100C400081E0898719821A821B821C821D821E8282
:100C50001F82188620E030E040E950E46B857C85F7
:100C60008D859E859ED4181654F486E089831A8259
:100C70001B821C821D821E821F8218865DC020E09E
:100C800030E040E650E46B857C858D859E8589D477
:100C9000181654F485E089831A821B821C821D82F7
:100CA0001E821F82188648C020E030E040E250E4F7
:100CB0006B857C858D859E8574D4181654F484E0EC
:100CC00089831A821B821C821D821E821F821886C3
:100CD00033C020E030E040EC5FE36B857C858D85A0
:100CE0009E855FD4181654F483E089831A821B8290
:100CF0001C821D821E821F8218861EC020E030E0EA
:100D000040E05FE36B857C858D859E854AD418160F
:100D100054F482E089831A821B821C821D821E8207
:100D20001F82188609C081E089831A821B821C8277
:100D30001D821E821F82188629813A814B815C8127
:100D40006D817E818F819885822E932EA42EB52E63
:100D5000C62ED72EE82EF92E282D392D4A2D5B2DA3
:100D60006C2D7D2D8E2D9F2D01E0BDD22F87388BD0
:100D7000498B5A8B6B8B7C8B8D8B9E8B8F84988849
:100D8000A988BA88CB88DC88ED88FE88282D392D83
:100D90004A2D5B2D6C2D7D2D8E2D9F2D02E0A3D233
:100DA0002F8B388F498F5A8F6B8F7C8F8D8F9E8FB3
:100DB000282D392D4A2D5B2D6C2D7D2D8E2D9F2DAF
:100DC000AF88B88CC98CDA8CEB8CFC8C0D8D1E8DA9
:100DD000A3D229833A834B835C836D837E838F8385
:100DE00098878A858823C9F4898180936A008A81DB
:100DF00080936B008B8180936C008C8180936D005D
:100E00008D8180936E008E8180936F008F8180939F
:100E1000700088858093710018C08981809362007A
:100E20008A81809363008B81809364008C8180939E
:100E300065008D81809366008E81809367008F812D
:100E40008093680088858093690000006E960FB6D5
:100E5000F894DEBF0FBECDBFDF91CF911F910F91F0
:100E6000FF90EF90DF90CF90BF90AF909F908F90CA
:100E700008954F925F926F927F928F929F92AF925E
:100E8000BF92CF92DF92EF92FF920F931F93CF9377
:100E9000DF93CDB7DEB760970FB6F894DEBF0FBE15
:100EA000CDBFA3DE80916000282F30E081E090E08C
:100EB000AC0102C0440F551F2A95E2F788E390E089
:100EC00028E330E0F9012081322F242F232BFC016D
:100ED0002083F0916A00F98380916B008A8390915E
:100EE0006C009B83E0916D00EC83F0916E00FD83BC
:100EF00080916F008E83909170009F83E0917100CC
:100F0000E8874090620050906300609064007090A9
:100F100065008090660090906700A0906800B09097
:100F2000690050DA29873A874B875C876D877E870F
:100F30008F87988B61DB982F88858F938F818F9314
:100F40008E818F938D818F938C818F938B818F93E3
:100F50008A818F9389818F938B2D8F938A2D8F9385
:100F6000892D8F93882D8F93872D8F93862D8F9327
:100F7000852D8F93842D8F930F2EFFE78F2EF0E01A
:100F80009F2EF02D0F2EF1E6AF2EF0E0BF2EF02DAC
:100F90000F2EF5E8CF2EF0E0DF2EF02D0F2EFDE81E
:100FA000EF2EF0E0FF2EF02D09851A852B853C856C
:100FB0004D855E856F857889892FD4DB8DB79EB787
:100FC00040960FB6F894DEBF0FBECDBF60E074E070
:100FD00080E090E0A1D8A0907700B0907800C09019
:100FE0007900D0907A00E0907B00F0907C00009136
:100FF0007D0010917E002A2D3B2D4C2D5D2D6E2DF8
:101000007F2D802F912FA1E090D1A22EB32EC42E40
:10101000D52EE62EF72E082F192FA0927700B0922A
:101020007800C0927900D0927A00E0927B00F09232
:101030007C0000937D0010937E004BCF1F920F9297
:1010400000905F000F9211242F933F934F935F9373
:101050006F937F938F939F93AF93BF93EF93FF9380
:10106000CF93DF931F92CDB7DEB78AE590E02AE5F4
:1010700030E0F90120812F6DFC0120833CD86AE02B
:1010800070E080E090E048D825D8198202C081E065
:10109000898386E390E0FC018081882F90E0847052
:1010A0009927892BA1F38981882311F083E056D9F0
:1010B00000000F90DF91CF91FF91EF91BF91AF9121
:1010C0009F918F917F916F915F914F913F912F9160
:1010D0000F9000925F000F901F9018951F920F9233
:1010E00000905F000F9211242F933F934F935F93D3
:1010F0006F937F938F939F93AF93BF93EF93FF93E0
:10110000CF93DF93CDB7DEB72897DEBFCDBF86E2A2
:1011100090E026E230E0F90120812F6EFC0120836F
:1011200084E290E0FC018081882F90E09A8389839B
:1011300085E290E0FC018081882F90E0382F222703
:1011400089819A81822B932B9C838B838B819C81B9
:10115000092E000CAA0BBB0BBC01CD0172D1DC0126
:10116000CB0120E030E040EA50E4BC01CD011DD2CB
:10117000DC01CB0120E030E040E854E4BC01CD01CB
:10118000F6D0DC01CB018D839E83AF83B88780913D
:1011900076008823B1F48D819E81AF81B8858093DC
:1011A000800090938100A0938200B093830081E03F
:1011B0008093760086E290E0FC01108284E0CED835
:1011C0002BC020E030E040E250E46D817E818F81D1
:1011D0009885C9D018166CF080918000909181009C
:1011E000A0918200B0918300AC01BD0180E00FDDD1
:1011F0000CC08091800090918100A0918200B091FC
:101200008300AC01BD0181E002DD6DDA1092760051
:1012100086E290E0FC011082000028960FB6F89458
:10122000DEBF0FBECDBFDF91CF91FF91EF91BF9198
:10123000AF919F918F917F916F915F914F913F916E
:101240002F910F9000925F000F901F901895689457
:1012500001C0E8948F929F92CF93DF9305D0DF91E6
:10126000CF919F908F90089588249924F401E401F0
:10127000B0E41B2ED4019D158E049F04E007F107F6
:1012800038F4FC014B01CA01B901AD019E0116946D
:10129000220F331F441F551F661F771F881F991F7A
:1012A000881C991CEE1FFF1FCC1FDD1FAA1FBB1F30
:1012B0008A149B04EC05FD05CE05DF05A007B107E8
:1012C00048F08A189B08EC09FD09CE09DF09A00B3C
:1012D000B10B21601A94E1F62EF49401AF01BE0126
:1012E000CD01000C08950F93083090F0982F872FB0
:1012F000762F652F542F432F322F22270850F4CFFB
:10130000220F331F441F551F661F771F881F991F09
:101310000A95B2F70F9108952A0D3B1D4C1D5D1DD6
:101320006E1D7F1D801F911F08950024A7FD00944E
:101330002A0F301D401D501D601D701D801D901D09
:1013400008952A193B094C095D096E097F09800B34
:10135000910B08952A153B054C055D056E057F052B
:10136000800791070895A8D008F481E008950CD073
:10137000DEC0D6D040F0CDD030F021F45F3F19F080
:10138000BFC0511108C1C2C0E3D098F39923C9F37B
:101390005523B1F3951B550BBB27AA27621773077B
:1013A000840738F09F5F5F4F220F331F441FAA1F2F
:1013B000A9F333D00E2E3AF0E0E830D091505040EF
:1013C000E695001CCAF729D0FE2F27D0660F771F9D
:1013D000881FBB1F261737074807AB07B0E809F07F
:1013E000BB0B802DBF01FF2793585F4F2AF09E3F14
:1013F000510568F085C0CFC05F3FECF3983EDCF349
:10140000869577956795B795F7959F5FC9F7880F8C
:10141000911D9695879597F90895E1E0660F771FDE
:10142000881FBB1F621773078407BA0720F0621B6F
:10143000730B840BBA0BEE1F88F7E0950895E894C0
:1014400009C097FB3EF490958095709561957F4F0C
:101450008F4F9F4F9923A9F0F92F96E9BB279395BA
:10146000F695879577956795B795F111F8CFFAF4CA
:10147000BB0F11F460FF1BC06F5F7F4F8F4F9F4FFB
:1014800016C0882311F096E911C0772321F09EE859
:10149000872F762F05C0662371F096E8862F70E0BF
:1014A00060E02AF09A95660F771F881FDAF7880F99
:1014B0009695879597F90895990F0008550FAA0BEF
:1014C000E0E8FEEF16161706E807F907C0F0121657
:1014D0001306E407F50798F0621B730B840B950B5A
:1014E00039F40A2661F0232B242B252B21F40895AF
:1014F0000A2609F4A140A6958FEF811D811D08954C
:1015000097F99F6780E870E060E008959FEF80ECB6
:10151000089500240A941616170618060906089559
:1015200000240A9412161306140605060895092EBF
:101530000394000C11F4882352F0BB0F40F4BF2B2E
:1015400011F460FF04C06F5F7F4F8F4F9F4F08956E
:1015500057FD9058440F551F59F05F3F71F0479564
:10156000880F97FB991F61F09F3F79F08795089549
:10157000121613061406551FF2CF4695F1DF08C068
:10158000161617061806991FF1CF86957105610585
:1015900008940895E894BB2766277727CB0197F92D
:1015A00008958ADF08F48FEF08950AD0C0CFB1DF25
:1015B00028F0B6DF18F0952309F0A2CFA7CFEBCF24
:1015C000C7DFA8F39923D9F35523C9F3950F50E04A
:1015D000551FAA27EE27FF27BB27002408946795ED
:1015E00020F4E20FF31FB41F0A1E220F331F441F03
:1015F000AA1F6695A9F7779530F4F30FB41F0A1E5A
:10160000121E08F46395330F441FAA1F221F7695FC
:1016100099F7879520F4B40F0A1E121E631F440F1A
:10162000AA1F221F331F8695A9F7862F712D602DC3
:1016300011249F5750408AF0E1F088234AF0EE0FC2
:10164000FF1FBB1F661F771F881F91505040A9F7CF
:101650009E3F510570F054CF9ECF5F3FECF3983E14
:10166000DCF3869577956795B795F795E7959F5F36
:10167000C1F7FE2B880F911D9695879597F90895D0
:04168000F894FFCF0C
:1016840001640A00000000000000020000000000E5
:02169400000054
:00000001FF
