:100000000EC028C0AEC126C025C024C023C022C057
:10001000F8C120C020C01EC01DC01CC01BC01124C0
:100020001FBECFE5D2E0DEBFCDBF10E0A0E6B0E05E
:10003000E8E0F9E002C005900D92A236B107D9F7C9
:1000400020E0A2E6B0E001C01D92A736B207E1F7BA
:100050007DD158C4D5CF1F920F9200905F000F92B0
:1000600011242F933F938F939F93AF93BF93EF935D
:10007000FF93CF93DF93CDB7DEB788E590E028E517
:1000800030E0F90120812F6EFC0120838091620015
:1000900090916300A0916400B09165000196A11D4C
:1000A000B11D8093620090936300A0936400B093AD
:1000B00065000000DF91CF91FF91EF91BF91AF916B
:1000C0009F918F913F912F910F9000925F000F9021
:1000D0001F901895CF93DF93CDB7DEB78FE590E0F3
:1000E0002FE530E0F90120812F67FC01208300001B
:1000F000DF91CF910895CF93DF93CDB7DEB78FE532
:1001000090E02FE530E0F90120812068FC01208398
:100110000000DF91CF910895CF93DF9300D000D0FE
:10012000CDB7DEB769837A838B839C83109262009C
:1001300010926300109264001092650000002091FC
:1001400062003091630040916400509165008981A4
:100150009A81AB81BC81281739074A075B0778F37E
:1001600000000F900F900F900F90DF91CF910895A6
:10017000CF93DF93CDB7DEB78CE490E020E8FC01AD
:1001800020838AE490E0FC01108283E590E0FC018A
:1001900010828AE490E02AE430E0F90120812260B4
:1001A000FC01208383E590E023E530E0F901208124
:1001B0002260FC01208382E590E0FC01108289E44A
:1001C00090E02DE7FC01208389E590E029E530E00F
:1001D000F90120812061FC0120830000DF91CF9193
:1001E0000895CF93DF93CDB7DEB785E590E025E5A1
:1001F00030E0F90120812E6FFC0120838BE590E037
:100200002BE530E0F90120812064FC01208300000F
:10021000DF91CF910895CF93DF931F92CDB7DEB7D3
:10022000898385E590E025E530E0F90120812E6F96
:10023000FC01208385E390E025E330E0F901208193
:10024000622F2981422F220F550B21E030E002C09E
:10025000220F331F4A95E2F7262BFC0120838BE502
:1002600090E02BE530E0F90120812062FC01208341
:1002700000000F90DF91CF910895CF93DF931F92ED
:10028000CDB7DEB7898387E390E027E330E0F9015B
:100290002081622F2981422F220F550B21E030E06F
:1002A00002C0220F331F4A95E2F7262BFC01208360
:1002B00000000F90DF91CF910895CF93DF931F92AD
:1002C000CDB7DEB789838981833031F487E290E04E
:1002D00023E0FC01208305C087E290E022E0FC01DE
:1002E000208386E290E026E230E0F9012081286058
:1002F000FC01208386E290E026E230E0F9012081D3
:100300002068FC01208386E290E026E230E0F901DB
:1003100020812064FC01208300000F90DF91CF91A9
:100320000895CF93DF93CDB7DEB7D4DE8091600020
:10033000A4DF80916100A1DF1BDF82E06CDF83E03E
:10034000BCDFD9DE0000DF91CF910895CF93DF931A
:10035000CDB7DEB7E6DF68EE73E080E090E0DCDE8C
:10036000FACF1F920F9200905F000F9211242F93EB
:100370003F934F935F936F937F938F939F93AF932D
:10038000BF93EF93FF93CF93DF931F92CDB7DEB769
:100390008AE590E02AE530E0F90120812F6DFC012B
:1003A0002083A9DE6AE070E080E090E0B5DE92DEB6
:1003B000198202C081E0898386E390E0FC0180819C
:1003C000882F90E084709927892BA1F38981882355
:1003D00011F083E072DF00000F90DF91CF91FF9169
:1003E000EF91BF91AF919F918F917F916F915F91AD
:1003F0004F913F912F910F9000925F000F901F90AF
:1004000018951F920F9200905F000F9211242F9366
:100410003F934F935F936F937F938F939F93AF938C
:10042000BF93EF93FF93CF93DF93CDB7DEB72897BA
:10043000DEBFCDBF86E290E026E230E0F901208108
:100440002F6EFC01208384E290E0FC018081882FE4
:1004500090E09A83898385E290E0FC018081882F77
:1004600090E0382F222789819A81822B932B9C83BD
:100470008B838B819C81092E000CAA0BBB0BBC01CA
:10048000CD0121D1DC01CB0120E030E040EA50E495
:10049000BC01CD01A8D1DC01CB0120E030E040E877
:1004A00054E4BC01CD01A5D0DC01CB018D839E833A
:1004B000AF83B88720E030E040E850E46D817E8172
:1004C0008F8198858CD1181694F5809166008823C9
:1004D000B9F488E390E028E330E0F9012081622F4D
:1004E00020916000422F50E021E030E002C0220F56
:1004F000331F4A95E2F720952623FC0120834AC04A
:1005000088E390E028E330E0F9012081622F209118
:100510006100422F50E021E030E002C0220F331F83
:100520004A95E2F720952623FC01208333C0809171
:1005300066008823C1F480916000282F30E081E0BC
:1005400090E0AC0102C0440F551F2A95E2F788E302
:1005500090E028E330E0F9012081322F242F232B73
:10056000FC01208317C080916100282F30E081E0DA
:1005700090E0AC0102C0440F551F2A95E2F788E3D2
:1005800090E028E330E0F9012081322F242F232B43
:10059000FC01208380916600882351F481E08093E0
:1005A000660086E290E0FC01108284E086DE06C0F0
:1005B0001092660086E290E0FC011082000028960E
:1005C0000FB6F894DEBF0FBECDBFDF91CF91FF9184
:1005D000EF91BF91AF919F918F917F916F915F91BB
:1005E0004F913F912F910F9000925F000F901F90BD
:1005F00018950CD0BAC0B2D040F0A9D030F021F498
:100600005F3F19F09BC05111E4C09EC0BFD098F36A
:100610009923C9F35523B1F3951B550BBB27AA2783
:1006200062177307840738F09F5F5F4F220F331FF5
:10063000441FAA1FA9F333D00E2E3AF0E0E830D0C1
:1006400091505040E695001CCAF729D0FE2F27D0C4
:10065000660F771F881FBB1F261737074807AB0792
:10066000B0E809F0BB0B802DBF01FF2793585F4F07
:100670002AF09E3F510568F061C0ABC05F3FECF3CC
:10068000983EDCF3869577956795B795F7959F5FCC
:10069000C9F7880F911D9695879597F90895E1E020
:1006A000660F771F881FBB1F621773078407BA077F
:1006B00020F0621B730B840BBA0BEE1F88F7E095DA
:1006C0000895E89409C097FB3EF490958095709545
:1006D00061957F4F8F4F9F4F9923A9F0F92F96E98E
:1006E000BB279395F695879577956795B795F11103
:1006F000F8CFFAF4BB0F11F460FF1BC06F5F7F4FA0
:100700008F4F9F4F16C0882311F096E911C07723B1
:1007100021F09EE8872F762F05C0662371F096E8BA
:10072000862F70E060E02AF09A95660F771F881F89
:10073000DAF7880F9695879597F9089597F99F6747
:1007400080E870E060E008959FEF80EC0895002459
:100750000A941616170618060906089500240A9426
:1007600012161306140605060895092E0394000CAC
:1007700011F4882352F0BB0F40F4BF2B11F460FF3B
:1007800004C06F5F7F4F8F4F9F4F089557FD905864
:10079000440F551F59F05F3F71F04795880F97FB45
:1007A000991F61F09F3F79F08795089512161306FF
:1007B0001406551FF2CF4695F1DF08C0161617062E
:1007C0001806991FF1CF8695710561050894089563
:1007D000E894BB2766277727CB0197F908956ED059
:1007E00008F48FEF08950AD0C0CFB1DF28F0B6DF4C
:1007F00018F0952309F0A2CFA7CFEBCFC7DFA8F35E
:100800009923D9F35523C9F3950F50E0551FAA2713
:10081000EE27FF27BB2700240894679520F4E20FFA
:10082000F31FB41F0A1E220F331F441FAA1F669511
:10083000A9F7779530F4F30FB41F0A1E121E08F4BF
:100840006395330F441FAA1F221F769599F787954A
:1008500020F4B40F0A1E121E631F440FAA1F221F8A
:10086000331F8695A9F7862F712D602D11249F5770
:1008700050408AF0E1F088234AF0EE0FFF1FBB1FC3
:10088000661F771F881F91505040A9F79E3F510562
:1008900070F054CF9ECF5F3FECF3983EDCF386952B
:1008A00077956795B795F795E7959F5FC1F7FE2B0D
:1008B000880F911D9695879597F90895990F0008CF
:1008C000550FAA0BE0E8FEEF16161706E807F90722
:1008D000C0F012161306E407F50798F0621B730BBD
:1008E000840B950B39F40A2661F0232B242B252B3E
:1008F00021F408950A2609F4A140A6958FEF811DE1
:08090000811D0895F894FFCF5A
:020908000001EC
:00000001FF
