:100000000EC028C09CC126C025C024C023C022C069
:1000100021C020C020C01EC01DC01CC01BC0112498
:100020001FBECFE5D2E0DEBFCDBF10E0A0E6B0E05E
:10003000ECE0F4E002C005900D92A236B107D9F7CA
:1000400020E0A2E6B0E001C01D92A636B207E1F7BB
:1000500054D1DAC1D5CF1F920F9200905F000F925A
:1000600011242F933F938F939F93AF93BF93EF935D
:10007000FF93CF93DF93CDB7DEB788E590E028E517
:1000800030E0F90120812F6EFC0120838091620015
:1000900090916300A0916400B09165000196A11D4C
:1000A000B11D8093620090936300A0936400B093AD
:1000B00065000000DF91CF91FF91EF91BF91AF916B
:1000C0009F918F913F912F910F9000925F000F9021
:1000D0001F901895CF93DF93CDB7DEB78FE590E0F3
:1000E0002FE530E0F90120812F67FC01208300001B
:1000F000DF91CF910895CF93DF93CDB7DEB78FE532
:1001000090E02FE530E0F90120812068FC01208398
:100110000000DF91CF910895CF93DF9300D000D0FE
:10012000CDB7DEB769837A838B839C83109262009C
:1001300010926300109264001092650000002091FC
:1001400062003091630040916400509165008981A4
:100150009A81AB81BC81281739074A075B0778F37E
:1001600000000F900F900F900F90DF91CF910895A6
:10017000CF93DF93CDB7DEB78CE490E020E8FC01AD
:1001800020838AE490E0FC01108283E590E0FC018A
:1001900010828AE490E02AE430E0F90120812260B4
:1001A000FC01208383E590E023E530E0F901208124
:1001B0002260FC01208382E590E0FC01108289E44A
:1001C00090E02DE7FC01208389E590E029E530E00F
:1001D000F90120812061FC0120830000DF91CF9193
:1001E0000895CF93DF93CDB7DEB785E590E025E5A1
:1001F00030E0F90120812E6FFC0120838BE590E037
:100200002BE530E0F90120812064FC01208300000F
:10021000DF91CF910895CF93DF931F92CDB7DEB7D3
:10022000898385E590E025E530E0F90120812E6F96
:10023000FC01208385E390E025E330E0F901208193
:10024000622F2981422F220F550B21E030E002C09E
:10025000220F331F4A95E2F7262BFC0120838BE502
:1002600090E02BE530E0F90120812062FC01208341
:1002700000000F90DF91CF910895CF93DF931F92ED
:10028000CDB7DEB7898387E390E027E330E0F9015B
:100290002081622F2981422F220F550B21E030E06F
:1002A00002C0220F331F4A95E2F7262BFC01208360
:1002B00000000F90DF91CF910895CF93DF931F92AD
:1002C000CDB7DEB7898300000F90DF91CF910895FD
:1002D000CF93DF93CDB7DEB7FDDE80916000CDDF39
:1002E00080916100CADF44DF82E0E7DF82E093DFD4
:1002F00002DF0000DF91CF910895CF93DF93CDB758
:10030000DEB7E6DF68EE73E080E090E005DF809125
:100310006000282F30E081E090E0AC0102C0440F83
:10032000551F2A95E2F788E390E028E330E0F901D1
:100330002081322F242F2327FC012083E3CF1F921B
:100340000F9200905F000F9211242F933F934F93D1
:100350005F936F937F938F939F93AF93BF93EF932D
:10036000FF93CF93DF931F92CDB7DEB78AE590E07E
:100370002AE530E0F90120812F6DFC012083BBDEEE
:100380006AE070E080E090E0C7DEA4DE198202C07F
:1003900081E0898386E390E0FC018081882F90E0F2
:1003A00084709927892BA1F389818823B9F08091E2
:1003B0006100282F30E081E090E0AC0102C0440FE2
:1003C000551F2A95E2F788E390E028E330E0F90131
:1003D0002081322F242F2327FC01208300000F903F
:1003E000DF91CF91FF91EF91BF91AF919F918F914D
:1003F0007F916F915F914F913F912F910F9000925C
:0C0400005F000F901F901895F894FFCF3C
:02040C000001ED
:00000001FF
