:100000000EC01DC01CC01BC01AC019C018C017C02C
:1000100016C015C015C013C012C011C010C01124E5
:100020001FBECFE5D2E0DEBFCDBF20E0A0E6B0E04E
:1000300001C01D92A436B207E1F705D122C1E0CF7D
:100040001F920F9200905F000F9211248F939F9345
:10005000AF93BF93CF93DF93CDB7DEB780916000AE
:1000600090916100A0916200B09163000196A11D82
:10007000B11D8093600090936100A0936200B093E3
:1000800063000000DF91CF91BF91AF919F918F915D
:100090000F9000925F000F901F901895CF93DF9301
:1000A00000D000D0CDB7DEB769837A838B839C8381
:1000B0001092600010926100109262001092630032
:1000C00000002091600030916100409162005091E9
:1000D000630089819A81AB81BC81281739074A075F
:1000E0005B0778F300000F900F900F900F90DF9157
:1000F000CF910895CF93DF93CDB7DEB78FE590E032
:100100002FE530E0F90120812160FC01208387E3A5
:1001100090E027E330E0F90120812160FC01208399
:100120008CE490E020E8FC0120838AE490E0FC016C
:10013000108283E590E0FC0110828AE490E02AE4DA
:1001400030E0F90120812260FC01208383E590E00A
:1001500023E530E0F90120812260FC01208382E563
:1001600090E0FC01108289E490E02DE7FC012083FF
:1001700089E590E029E530E0F90120812061FC016A
:1001800020830000DF91CF910895CF93DF93CDB707
:10019000DEB785E590E025E530E0F90120812E6F9E
:1001A000FC0120838BE590E02BE530E0F901208114
:1001B0002064FC0120830000DF91CF910895CF934C
:1001C000DF931F92CDB7DEB7898385E590E025E503
:1001D00030E0F90120812E6FFC01208385E390E05F
:1001E00025E330E0F9012081622F2981422F220F7F
:1001F000550B21E030E002C0220F331F4A95E2F791
:10020000262BFC0120838BE590E02BE530E0F90103
:1002100020812062FC01208300000F90DF91CF91AC
:100220000895CF93DF93CDB7DEB764DF8FE590E01D
:100230002FE530E0F90120812068FC0120830000D7
:10024000DF91CF910895CF93DF93CDB7DEB7E9DF8C
:1002500087E390E027E330E0F90120812160FC0191
:10026000208368EE73E080E090E018DF88E390E0A0
:1002700028E330E0F901308121E02327FC012083CD
:06028000F0CFF894FFCF5F
:00000001FF
